{
  "contractName": "TempMatch",
  "abi": [
    {
      "constant": true,
      "inputs": [
        {
          "name": "",
          "type": "bytes32"
        }
      ],
      "name": "buyQueue",
      "outputs": [
        {
          "name": "start",
          "type": "bytes32"
        },
        {
          "name": "end",
          "type": "bytes32"
        }
      ],
      "payable": false,
      "stateMutability": "view",
      "type": "function"
    },
    {
      "constant": true,
      "inputs": [
        {
          "name": "",
          "type": "string"
        }
      ],
      "name": "configurations",
      "outputs": [
        {
          "name": "",
          "type": "string"
        }
      ],
      "payable": false,
      "stateMutability": "view",
      "type": "function"
    },
    {
      "constant": true,
      "inputs": [],
      "name": "DOMAIN_SEPARATOR",
      "outputs": [
        {
          "name": "",
          "type": "bytes32"
        }
      ],
      "payable": false,
      "stateMutability": "view",
      "type": "function"
    },
    {
      "constant": true,
      "inputs": [],
      "name": "EIP712_ORDER_TYPE",
      "outputs": [
        {
          "name": "",
          "type": "bytes32"
        }
      ],
      "payable": false,
      "stateMutability": "view",
      "type": "function"
    },
    {
      "constant": true,
      "inputs": [],
      "name": "DAY_SECONDS",
      "outputs": [
        {
          "name": "",
          "type": "uint256"
        }
      ],
      "payable": false,
      "stateMutability": "view",
      "type": "function"
    },
    {
      "constant": true,
      "inputs": [],
      "name": "REBATE_RATE_BASE",
      "outputs": [
        {
          "name": "",
          "type": "uint256"
        }
      ],
      "payable": false,
      "stateMutability": "view",
      "type": "function"
    },
    {
      "constant": true,
      "inputs": [],
      "name": "SUPPORTED_ORDER_VERSION",
      "outputs": [
        {
          "name": "",
          "type": "uint256"
        }
      ],
      "payable": false,
      "stateMutability": "view",
      "type": "function"
    },
    {
      "constant": true,
      "inputs": [],
      "name": "EIP712_DOMAIN_TYPEHASH",
      "outputs": [
        {
          "name": "",
          "type": "bytes32"
        }
      ],
      "payable": false,
      "stateMutability": "view",
      "type": "function"
    },
    {
      "constant": true,
      "inputs": [],
      "name": "_dex",
      "outputs": [
        {
          "name": "",
          "type": "address"
        }
      ],
      "payable": false,
      "stateMutability": "view",
      "type": "function"
    },
    {
      "constant": true,
      "inputs": [],
      "name": "WEEK_SECONDS",
      "outputs": [
        {
          "name": "",
          "type": "uint256"
        }
      ],
      "payable": false,
      "stateMutability": "view",
      "type": "function"
    },
    {
      "constant": true,
      "inputs": [
        {
          "name": "",
          "type": "bytes32"
        }
      ],
      "name": "sellQueue",
      "outputs": [
        {
          "name": "start",
          "type": "bytes32"
        },
        {
          "name": "end",
          "type": "bytes32"
        }
      ],
      "payable": false,
      "stateMutability": "view",
      "type": "function"
    },
    {
      "constant": true,
      "inputs": [
        {
          "name": "",
          "type": "bytes32"
        }
      ],
      "name": "orderFlag",
      "outputs": [
        {
          "name": "",
          "type": "bool"
        }
      ],
      "payable": false,
      "stateMutability": "view",
      "type": "function"
    },
    {
      "inputs": [
        {
          "name": "dex",
          "type": "address"
        }
      ],
      "payable": false,
      "stateMutability": "nonpayable",
      "type": "constructor"
    },
    {
      "payable": true,
      "stateMutability": "payable",
      "type": "fallback"
    },
    {
      "anonymous": false,
      "inputs": [
        {
          "indexed": false,
          "name": "bq_hash",
          "type": "bytes32"
        },
        {
          "indexed": false,
          "name": "od_hash",
          "type": "bytes32"
        }
      ],
      "name": "MakeOrder",
      "type": "event"
    },
    {
      "anonymous": false,
      "inputs": [
        {
          "indexed": false,
          "name": "bq_hash",
          "type": "bytes32"
        },
        {
          "indexed": false,
          "name": "od_hash",
          "type": "bytes32"
        }
      ],
      "name": "CancelOrder",
      "type": "event"
    },
    {
      "constant": false,
      "inputs": [
        {
          "components": [
            {
              "name": "trader",
              "type": "address"
            },
            {
              "name": "baseTokenAmount",
              "type": "uint256"
            },
            {
              "name": "quoteTokenAmount",
              "type": "uint256"
            },
            {
              "name": "gasTokenAmount",
              "type": "uint256"
            },
            {
              "name": "data",
              "type": "bytes32"
            },
            {
              "components": [
                {
                  "name": "config",
                  "type": "bytes32"
                },
                {
                  "name": "r",
                  "type": "bytes32"
                },
                {
                  "name": "s",
                  "type": "bytes32"
                }
              ],
              "name": "signature",
              "type": "tuple"
            }
          ],
          "name": "takerOrderParam",
          "type": "tuple"
        },
        {
          "components": [
            {
              "name": "baseToken",
              "type": "address"
            },
            {
              "name": "quoteToken",
              "type": "address"
            },
            {
              "name": "relayer",
              "type": "address"
            }
          ],
          "name": "orderAddressSet",
          "type": "tuple"
        }
      ],
      "name": "takeOrder",
      "outputs": [],
      "payable": false,
      "stateMutability": "nonpayable",
      "type": "function"
    },
    {
      "constant": true,
      "inputs": [
        {
          "components": [
            {
              "name": "baseToken",
              "type": "address"
            },
            {
              "name": "quoteToken",
              "type": "address"
            },
            {
              "name": "relayer",
              "type": "address"
            }
          ],
          "name": "orderAddressSet",
          "type": "tuple"
        }
      ],
      "name": "getBQHash",
      "outputs": [
        {
          "name": "bq_hash",
          "type": "bytes32"
        }
      ],
      "payable": false,
      "stateMutability": "pure",
      "type": "function"
    },
    {
      "constant": true,
      "inputs": [
        {
          "components": [
            {
              "name": "trader",
              "type": "address"
            },
            {
              "name": "baseTokenAmount",
              "type": "uint256"
            },
            {
              "name": "quoteTokenAmount",
              "type": "uint256"
            },
            {
              "name": "gasTokenAmount",
              "type": "uint256"
            },
            {
              "name": "data",
              "type": "bytes32"
            },
            {
              "components": [
                {
                  "name": "config",
                  "type": "bytes32"
                },
                {
                  "name": "r",
                  "type": "bytes32"
                },
                {
                  "name": "s",
                  "type": "bytes32"
                }
              ],
              "name": "signature",
              "type": "tuple"
            }
          ],
          "name": "orderParam",
          "type": "tuple"
        },
        {
          "components": [
            {
              "name": "baseToken",
              "type": "address"
            },
            {
              "name": "quoteToken",
              "type": "address"
            },
            {
              "name": "relayer",
              "type": "address"
            }
          ],
          "name": "orderAddressSet",
          "type": "tuple"
        }
      ],
      "name": "getBQODHash",
      "outputs": [
        {
          "name": "bq_hash",
          "type": "bytes32"
        },
        {
          "name": "od_hash",
          "type": "bytes32"
        }
      ],
      "payable": false,
      "stateMutability": "view",
      "type": "function"
    },
    {
      "constant": true,
      "inputs": [
        {
          "name": "bq_hash",
          "type": "bytes32"
        },
        {
          "name": "od_hash",
          "type": "bytes32"
        },
        {
          "name": "is_sell",
          "type": "bool"
        }
      ],
      "name": "getOrderInfo",
      "outputs": [
        {
          "components": [
            {
              "components": [
                {
                  "name": "trader",
                  "type": "address"
                },
                {
                  "name": "baseTokenAmount",
                  "type": "uint256"
                },
                {
                  "name": "quoteTokenAmount",
                  "type": "uint256"
                },
                {
                  "name": "gasTokenAmount",
                  "type": "uint256"
                },
                {
                  "name": "data",
                  "type": "bytes32"
                },
                {
                  "components": [
                    {
                      "name": "config",
                      "type": "bytes32"
                    },
                    {
                      "name": "r",
                      "type": "bytes32"
                    },
                    {
                      "name": "s",
                      "type": "bytes32"
                    }
                  ],
                  "name": "signature",
                  "type": "tuple"
                }
              ],
              "name": "order",
              "type": "tuple"
            },
            {
              "name": "filled",
              "type": "uint256"
            },
            {
              "name": "next",
              "type": "bytes32"
            }
          ],
          "name": "",
          "type": "tuple"
        }
      ],
      "payable": false,
      "stateMutability": "view",
      "type": "function"
    },
    {
      "constant": false,
      "inputs": [
        {
          "components": [
            {
              "name": "trader",
              "type": "address"
            },
            {
              "name": "baseTokenAmount",
              "type": "uint256"
            },
            {
              "name": "quoteTokenAmount",
              "type": "uint256"
            },
            {
              "name": "gasTokenAmount",
              "type": "uint256"
            },
            {
              "name": "data",
              "type": "bytes32"
            },
            {
              "components": [
                {
                  "name": "config",
                  "type": "bytes32"
                },
                {
                  "name": "r",
                  "type": "bytes32"
                },
                {
                  "name": "s",
                  "type": "bytes32"
                }
              ],
              "name": "signature",
              "type": "tuple"
            }
          ],
          "name": "takerOrderParam",
          "type": "tuple"
        },
        {
          "components": [
            {
              "name": "baseToken",
              "type": "address"
            },
            {
              "name": "quoteToken",
              "type": "address"
            },
            {
              "name": "relayer",
              "type": "address"
            }
          ],
          "name": "orderAddressSet",
          "type": "tuple"
        }
      ],
      "name": "cancelOrder",
      "outputs": [],
      "payable": false,
      "stateMutability": "nonpayable",
      "type": "function"
    },
    {
      "constant": true,
      "inputs": [
        {
          "name": "is_sell",
          "type": "bool"
        }
      ],
      "name": "getConfigData",
      "outputs": [
        {
          "name": "",
          "type": "bytes32"
        }
      ],
      "payable": false,
      "stateMutability": "view",
      "type": "function"
    },
    {
      "constant": true,
      "inputs": [
        {
          "name": "v",
          "type": "bytes1"
        },
        {
          "name": "r",
          "type": "bytes32"
        },
        {
          "name": "s",
          "type": "bytes32"
        },
        {
          "name": "signMethod",
          "type": "uint8"
        }
      ],
      "name": "getConfigSignature",
      "outputs": [
        {
          "components": [
            {
              "name": "config",
              "type": "bytes32"
            },
            {
              "name": "r",
              "type": "bytes32"
            },
            {
              "name": "s",
              "type": "bytes32"
            }
          ],
          "name": "sig",
          "type": "tuple"
        }
      ],
      "payable": false,
      "stateMutability": "pure",
      "type": "function"
    },
    {
      "constant": false,
      "inputs": [
        {
          "name": "key",
          "type": "string"
        },
        {
          "name": "value",
          "type": "string"
        }
      ],
      "name": "setConfiguration",
      "outputs": [],
      "payable": false,
      "stateMutability": "nonpayable",
      "type": "function"
    },
    {
      "constant": false,
      "inputs": [
        {
          "name": "key",
          "type": "string"
        }
      ],
      "name": "delConfiguration",
      "outputs": [],
      "payable": false,
      "stateMutability": "nonpayable",
      "type": "function"
    }
  ],
  "bytecode": "0x60806040523480156200001157600080fd5b50604051602080620031b0833981018060405262000033919081019062000125565b6040516020016200004490620001de565b604051602081830303815290604052805190602001206040518060400160405280600e81526020017f487964726f2050726f746f636f6c00000000000000000000000000000000000081525080519060200120604051602001620000aa929190620001ae565b6040516020818303038152906040528051906020012060008190555080600460006101000a81548173ffffffffffffffffffffffffffffffffffffffff021916908373ffffffffffffffffffffffffffffffffffffffff1602179055505062000276565b6000815190506200011f816200025c565b92915050565b6000602082840312156200013857600080fd5b600062000148848285016200010e565b91505092915050565b62000166620001608262000214565b62000252565b82525050565b60006200017b601983620001f5565b91507f454950373132446f6d61696e28737472696e67206e616d6529000000000000006000830152601982019050919050565b6000620001bc828562000151565b602082019150620001ce828462000151565b6020820191508190509392505050565b6000620001eb826200016c565b9150819050919050565b600081905092915050565b60006200020d8262000232565b9050919050565b6000819050919050565b60006200022b8262000200565b9050919050565b600073ffffffffffffffffffffffffffffffffffffffff82169050919050565b6000819050919050565b62000267816200021e565b81146200027357600080fd5b50565b612f2a80620002866000396000f3fe60806040526004361061012a5760003560e01c8063ad7b65b1116100ab578063cd671a581161006f578063cd671a5814610406578063efe2941514610431578063efe331cf1461045a578063f875a99814610498578063f8a8db0e146104d6578063feee047e146105135761012a565b8063ad7b65b11461031f578063b7f92b4a14610348578063c1e31de914610385578063c7977be7146103b0578063cab9d651146103db5761012a565b80634cb0e6e0116100f25780634cb0e6e0146102385780635373a1911461027557806358e6d53c146102a057806363aaf8ec146102cb5780637b1ad91c146102f65761012a565b806309adca611461012c5780630b973ca21461016a5780631214dd58146101a75780633644e515146101e45780633a06b29f1461020f575b005b34801561013857600080fd5b50610153600480360361014e91908101906121ae565b610550565b604051610161929190612aa6565b60405180910390f35b34801561017657600080fd5b50610191600480360361018c919081019061214b565b610574565b60405161019e9190612be5565b60405180910390f35b3480156101b357600080fd5b506101ce60048036036101c99190810190612226565b6105cf565b6040516101db9190612aea565b60405180910390f35b3480156101f057600080fd5b506101f9610695565b6040516102069190612a8b565b60405180910390f35b34801561021b57600080fd5b5061023660048036036102319190810190612267565b61069b565b005b34801561024457600080fd5b5061025f600480360361025a9190810190612314565b6106c8565b60405161026c9190612a8b565b60405180910390f35b34801561028157600080fd5b5061028a610734565b6040516102979190612a8b565b60405180910390f35b3480156102ac57600080fd5b506102b561075c565b6040516102c29190612c1c565b60405180910390f35b3480156102d757600080fd5b506102e0610763565b6040516102ed9190612c1c565b60405180910390f35b34801561030257600080fd5b5061031d6004803603610318919081019061233d565b610768565b005b34801561032b57600080fd5b50610346600480360361034191908101906122a8565b610831565b005b34801561035457600080fd5b5061036f600480360361036a91908101906121d7565b610868565b60405161037c9190612c00565b60405180910390f35b34801561039157600080fd5b5061039a610a9b565b6040516103a79190612c1c565b60405180910390f35b3480156103bc57600080fd5b506103c5610aa0565b6040516103d29190612a8b565b60405180910390f35b3480156103e757600080fd5b506103f0610ac8565b6040516103fd9190612acf565b60405180910390f35b34801561041257600080fd5b5061041b610aee565b6040516104289190612c1c565b60405180910390f35b34801561043d57600080fd5b506104586004803603610453919081019061233d565b610af8565b005b34801561046657600080fd5b50610481600480360361047c919081019061233d565b610d85565b60405161048f929190612aa6565b60405180910390f35b3480156104a457600080fd5b506104bf60048036036104ba91908101906121ae565b610f30565b6040516104cd929190612aa6565b60405180910390f35b3480156104e257600080fd5b506104fd60048036036104f891908101906121ae565b610f54565b60405161050a9190612a70565b60405180910390f35b34801561051f57600080fd5b5061053a60048036036105359190810190612122565b610f74565b6040516105479190612a8b565b60405180910390f35b60026020528060005260406000206000915090508060010154908060020154905082565b61057c611c0c565b60f88560f81c60ff16901b60001b81600001511781600001818152505060f08260ff16901b60001b8160000151178160000181815250508381602001818152505082816040018181525050949350505050565b6005818051602081018201805184825260208301602085012081835280955050505050506000915090508054600181600116156101000203166002900480601f01602080910402602001604051908101604052809291908181526020018280546001816001161561010002031660029004801561068d5780601f106106625761010080835404028352916020019161068d565b820191906000526020600020905b81548152906001019060200180831161067057829003601f168201915b505050505081565b60005481565b6005816040516106ab91906129f8565b908152602001604051809103902060006106c59190611c36565b50565b6000816000015173ffffffffffffffffffffffffffffffffffffffff1660001b826020015173ffffffffffffffffffffffffffffffffffffffff1660001b6040516020016107179291906129cc565b604051602081830303815290604052805190602001209050919050565b60405160200161074390612a46565b6040516020818303038152906040528051906020012081565b6201518081565b606481565b6000806107758484610d85565b9150915060006107888560800151611001565b90506003600083815260200190815260200160002060009054906101000a900460ff166107b457600080fd5b6000600160008581526020019081526020016000209050816107e6576002600085815260200190815260200160002090505b6107f08184611024565b7f09b011d9a7c8bbec0a29eaeb9d85de02bffaa54e4d12f15add85fdbe84df99e28484604051610821929190612aa6565b60405180910390a1505050505050565b8060058360405161084291906129f8565b90815260200160405180910390209080519060200190610863929190611c7e565b505050565b610870611cfe565b811561098757600160008581526020019081526020016000206000016000848152602001908152602001600020604051806060016040529081600082016040518060c00160405290816000820160009054906101000a900473ffffffffffffffffffffffffffffffffffffffff1673ffffffffffffffffffffffffffffffffffffffff1673ffffffffffffffffffffffffffffffffffffffff16815260200160018201548152602001600282015481526020016003820154815260200160048201548152602001600582016040518060600160405290816000820154815260200160018201548152602001600282015481525050815250508152602001600882015481526020016009820154815250509050610a94565b600260008581526020019081526020016000206000016000848152602001908152602001600020604051806060016040529081600082016040518060c00160405290816000820160009054906101000a900473ffffffffffffffffffffffffffffffffffffffff1673ffffffffffffffffffffffffffffffffffffffff1673ffffffffffffffffffffffffffffffffffffffff168152602001600182015481526020016002820154815260200160038201548152602001600482015481526020016005820160405180606001604052908160008201548152602001600182015481526020016002820154815250508152505081526020016008820154815260200160098201548152505090505b9392505050565b600281565b604051602001610aaf90612a5b565b6040516020818303038152906040528051906020012081565b600460009054906101000a900473ffffffffffffffffffffffffffffffffffffffff1681565b6007620151800281565b600080610b058484610d85565b915091506003600082815260200190815260200160002060009054906101000a900460ff1615610b3457600080fd5b60016003600083815260200190815260200160002060006101000a81548160ff02191690831515021790555060006001600084815260200190815260200160002090506000600260008581526020019081526020016000209050610b96611d29565b610ba38760800151611001565b8160800190151590811515815250508060800151610be6576002600086815260200190815260200160002092506001600086815260200190815260200160002091505b86602001518160200181815250508660400151816040018181525050610c1182828960200151611282565b816060018181525050600081606001511115610c3457610c3382888884611369565b5b8060000151876020015111610c70576003600085815260200190815260200160002060006101000a81549060ff02191690555050505050610d81565b60008360000160008681526020019081526020016000209050878160000160008201518160000160006101000a81548173ffffffffffffffffffffffffffffffffffffffff021916908373ffffffffffffffffffffffffffffffffffffffff1602179055506020820151816001015560408201518160020155606082015181600301556080820151816004015560a082015181600501600082015181600001556020820151816001015560408201518160020155505090505081600001518160080181905550610d418483876117f2565b7fd4aa177fffaabbf06f28fff716fc151e507dfe0d369bea7f2c2859c786a904da8686604051610d72929190612aa6565b60405180910390a15050505050505b5050565b600080610d90611d5a565b8460000151816000019073ffffffffffffffffffffffffffffffffffffffff16908173ffffffffffffffffffffffffffffffffffffffff1681525050846020015181608001818152505084604001518160a001818152505084606001518160c001818152505084608001518160e00181815250508360000151816040019073ffffffffffffffffffffffffffffffffffffffff16908173ffffffffffffffffffffffffffffffffffffffff16815250508360200151816060019073ffffffffffffffffffffffffffffffffffffffff16908173ffffffffffffffffffffffffffffffffffffffff16815250508360400151816020019073ffffffffffffffffffffffffffffffffffffffff16908173ffffffffffffffffffffffffffffffffffffffff1681525050836000015173ffffffffffffffffffffffffffffffffffffffff1660001b846020015173ffffffffffffffffffffffffffffffffffffffff1660001b604051602001610f059291906129cc565b604051602081830303815290604052805190602001209250610f2681611984565b9150509250929050565b60016020528060005260406000206000915090508060010154908060020154905082565b60036020528060005260406000206000915054906101000a900460ff1681565b60008060f86002901b811790508215610fe4577e010000000000000000000000000000000000000000000000000000000000008117905077025800000000000000000000000000000000000000000000811790507502580000000000000000000000000000000000000000811790505b60c0600762015180024201901b811790508060001b915050919050565b600060018260016020811061101257fe5b1a60f81b60f81c60ff16149050919050565b6000801b826001015414801561104057506000801b8260020154145b1561104a5761127e565b808260010154141561112d578160000160008281526020019081526020016000206009015482600101819055508160000160008281526020019081526020016000206000808201600080820160006101000a81549073ffffffffffffffffffffffffffffffffffffffff021916905560018201600090556002820160009055600382016000905560048201600090556005820160008082016000905560018201600090556002820160009055505050506008820160009055600982016000905550506000801b82600101541415611128576000801b82600201819055505b61127e565b60008260010154905060008360000160008381526020019081526020016000206009015490505b6000801b811461118e578281141561116b5761118e565b809150836000016000838152602001908152602001600020600901549050611154565b83600001600084815260200190815260200160002060090154846000016000848152602001908152602001600020600901819055508360000160008481526020019081526020016000206000808201600080820160006101000a81549073ffffffffffffffffffffffffffffffffffffffff021916905560018201600090556002820160009055600382016000905560048201600090556005820160008082016000905560018201600090556002820160009055505050506008820160009055600982016000905550506003600084815260200190815260200160002060006101000a81549060ff021916905550505b5050565b6000808460010154905060008060001b90506000809050600093505b6000801b83141580156112b15750600085115b1561135f5760008760000160008581526020019081526020016000209050806009015492506112e5878260000160016119a1565b15611350576112fe600186611a2790919063ffffffff16565b945061131e81600801548260000160010154611a7c90919063ffffffff16565b91508186106113415761133a8287611a7c90919063ffffffff16565b955061134b565b600095505061135f565b611356565b5061135f565b8293505061129e565b5050509392505050565b600083602001519050606082606001516040519080825280602002602001820160405280156113b257816020015b61139f611dfa565b8152602001906001900390816113975790505b509050606083606001516040519080825280602002602001820160405280156113ea5781602001602082028038833980820191505090505b50905060008090506000808960000160008b60010154815260200190815260200160002090505b6000801b8a600101541415801561142b5750866060015183105b1561170d578960000160008b600101548152602001908152602001600020905061146981600801548260000160010154611a7c90919063ffffffff16565b91508186106115a957611489828860000151611a2790919063ffffffff16565b8760000181815250506114a58287611a7c90919063ffffffff16565b9550806000016040518060c00160405290816000820160009054906101000a900473ffffffffffffffffffffffffffffffffffffffff1673ffffffffffffffffffffffffffffffffffffffff1673ffffffffffffffffffffffffffffffffffffffff168152602001600182015481526020016002820154815260200160038201548152602001600482015481526020016005820160405180606001604052908160008201548152602001600182015481526020016002820154815250508152505085848151811061157257fe5b60200260200101819052508184848151811061158a57fe5b6020026020010181815250506115a48a8b60010154611024565b6116f2565b6115c0868860000151611a2790919063ffffffff16565b8760000181815250506115e0868260080154611a2790919063ffffffff16565b8160080181905550806000016040518060c00160405290816000820160009054906101000a900473ffffffffffffffffffffffffffffffffffffffff1673ffffffffffffffffffffffffffffffffffffffff1673ffffffffffffffffffffffffffffffffffffffff16815260200160018201548152602001600282015481526020016003820154815260200160048201548152602001600582016040518060600160405290816000820154815260200160018201548152602001600282015481525050815250508584815181106116b357fe5b6020026020010181905250858484815181106116cb57fe5b6020026020010181815250506116eb600184611a2790919063ffffffff16565b925061170d565b611706600184611a2790919063ffffffff16565b9250611411565b86606001518314611753576040517f08c379a000000000000000000000000000000000000000000000000000000000815260040161174a90612b6e565b60405180910390fd5b600460009054906101000a900473ffffffffffffffffffffffffffffffffffffffff1673ffffffffffffffffffffffffffffffffffffffff1663884dad2e8a87878c6040518563ffffffff1660e01b81526004016117b49493929190612b8e565b600060405180830381600087803b1580156117ce57600080fd5b505af11580156117e2573d6000803e3d6000fd5b5050505050505050505050505050565b6000801b836001015414801561180e57506000801b8360020154145b1561182a5780836001018190555080836002018190555061197f565b6000836000016000856001015481526020019081526020016000209050611856838260000160006119a1565b1561188b578360010154846000016000848152602001908152602001600020600901819055508184600101819055505061197f565b8360000160008560020154815260200190815260200160002090506118b5838260000160006119a1565b6118d1578181600901819055508184600201819055505061197f565b60008460010154905060008560000160008381526020019081526020016000206009015490505b6000801b8114611941578560000160008281526020019081526020016000209250611928858460000160006119a1565b1561193257611941565b809150826009015490506118f8565b808660000160008681526020019081526020016000206009018190555083866000016000848152602001908152602001600020600901819055505050505b505050565b600061199761199283611ac6565b611b0e565b9050809050919050565b6000806119bf84600101548660400151611b4190919063ffffffff16565b905060006119de85600201548760200151611b4190919063ffffffff16565b90508315611a065785608001516119f857808210156119fd565b808211155b92505050611a20565b8560800151611a1757808211611a1b565b8082105b925050505b9392505050565b600080828401905083811015611a72576040517f08c379a0000000000000000000000000000000000000000000000000000000008152600401611a6990612b2e565b60405180910390fd5b8091505092915050565b6000611abe83836040518060400160405280601e81526020017f536166654d6174683a207375627472616374696f6e206f766572666c6f770000815250611bb1565b905092915050565b600080604051602001611ad890612a46565b60405160208183030381529060405280519060200120905060208303805182825261012082209350808252505081915050919050565b6000805482604051602001611b24929190612a0f565b604051602081830303815290604052805190602001209050919050565b600080831415611b545760009050611bab565b6000828402905082848281611b6557fe5b0414611ba6576040517f08c379a0000000000000000000000000000000000000000000000000000000008152600401611b9d90612b4e565b60405180910390fd5b809150505b92915050565b6000838311158290611bf9576040517f08c379a0000000000000000000000000000000000000000000000000000000008152600401611bf09190612b0c565b60405180910390fd5b5060008385039050809150509392505050565b60405180606001604052806000801916815260200160008019168152602001600080191681525090565b50805460018160011615610100020316600290046000825580601f10611c5c5750611c7b565b601f016020900490600052602060002090810190611c7a9190611e50565b5b50565b828054600181600116156101000203166002900490600052602060002090601f016020900481019282601f10611cbf57805160ff1916838001178555611ced565b82800160010185558215611ced579182015b82811115611cec578251825591602001919060010190611cd1565b5b509050611cfa9190611e50565b5090565b604051806101400160405280611d12611dfa565b815260200160008152602001600080191681525090565b6040518060a00160405280600081526020016000815260200160008152602001600081526020016000151581525090565b604051806101000160405280600073ffffffffffffffffffffffffffffffffffffffff168152602001600073ffffffffffffffffffffffffffffffffffffffff168152602001600073ffffffffffffffffffffffffffffffffffffffff168152602001600073ffffffffffffffffffffffffffffffffffffffff168152602001600081526020016000815260200160008152602001600080191681525090565b604051806101000160405280600073ffffffffffffffffffffffffffffffffffffffff16815260200160008152602001600081526020016000815260200160008019168152602001611e4a611e75565b81525090565b611e7291905b80821115611e6e576000816000905550600101611e56565b5090565b90565b60405180606001604052806000801916815260200160008019168152602001600080191681525090565b600081359050611eae81612e66565b92915050565b600081359050611ec381612e7d565b92915050565b600081359050611ed881612e94565b92915050565b600081359050611eed81612eab565b92915050565b600082601f830112611f0457600080fd5b8135611f17611f1282612c64565b612c37565b91508082526020830160208301858383011115611f3357600080fd5b611f3e838284612e09565b50505092915050565b600082601f830112611f5857600080fd5b8135611f6b611f6682612c90565b612c37565b91508082526020830160208301858383011115611f8757600080fd5b611f92838284612e09565b50505092915050565b600060608284031215611fad57600080fd5b611fb76060612c37565b90506000611fc784828501611e9f565b6000830152506020611fdb84828501611e9f565b6020830152506040611fef84828501611e9f565b60408301525092915050565b6000610100828403121561200e57600080fd5b61201860c0612c37565b9050600061202884828501611e9f565b600083015250602061203c848285016120f8565b6020830152506040612050848285016120f8565b6040830152506060612064848285016120f8565b606083015250608061207884828501611ede565b60808301525060a061208c84828501612098565b60a08301525092915050565b6000606082840312156120aa57600080fd5b6120b46060612c37565b905060006120c484828501611ede565b60008301525060206120d884828501611ede565b60208301525060406120ec84828501611ede565b60408301525092915050565b60008135905061210781612ec2565b92915050565b60008135905061211c81612ed9565b92915050565b60006020828403121561213457600080fd5b600061214284828501611eb4565b91505092915050565b6000806000806080858703121561216157600080fd5b600061216f87828801611ec9565b945050602061218087828801611ede565b935050604061219187828801611ede565b92505060606121a28782880161210d565b91505092959194509250565b6000602082840312156121c057600080fd5b60006121ce84828501611ede565b91505092915050565b6000806000606084860312156121ec57600080fd5b60006121fa86828701611ede565b935050602061220b86828701611ede565b925050604061221c86828701611eb4565b9150509250925092565b60006020828403121561223857600080fd5b600082013567ffffffffffffffff81111561225257600080fd5b61225e84828501611ef3565b91505092915050565b60006020828403121561227957600080fd5b600082013567ffffffffffffffff81111561229357600080fd5b61229f84828501611f47565b91505092915050565b600080604083850312156122bb57600080fd5b600083013567ffffffffffffffff8111156122d557600080fd5b6122e185828601611f47565b925050602083013567ffffffffffffffff8111156122fe57600080fd5b61230a85828601611f47565b9150509250929050565b60006060828403121561232657600080fd5b600061233484828501611f9b565b91505092915050565b600080610160838503121561235157600080fd5b600061235f85828601611ffb565b92505061010061237185828601611f9b565b9150509250929050565b60006123878383612869565b6101008301905092915050565b60006123a083836129ae565b60208301905092915050565b6123b581612d5a565b82525050565b60006123c682612cd6565b6123d08185612d1c565b93506123db83612cbc565b8060005b8381101561240c5781516123f3888261237b565b97506123fe83612d02565b9250506001810190506123df565b5085935050505092915050565b600061242482612ce1565b61242e8185612d2d565b935061243983612cc9565b8060005b8381101561246a5781516124518882612394565b975061245c83612d0f565b92505060018101905061243d565b5085935050505092915050565b61248081612d6c565b82525050565b61248f81612da4565b82525050565b61249e81612da4565b82525050565b6124b56124b082612da4565b612e4b565b82525050565b6124c481612de5565b82525050565b60006124d582612cf7565b6124df8185612d3e565b93506124ef818560208601612e18565b6124f881612e55565b840191505092915050565b600061250e82612cf7565b6125188185612d4f565b9350612528818560208601612e18565b80840191505092915050565b600061253f82612cec565b6125498185612d3e565b9350612559818560208601612e18565b61256281612e55565b840191505092915050565b600061257a600283612d4f565b91507f19010000000000000000000000000000000000000000000000000000000000006000830152600282019050919050565b60006125ba601b83612d3e565b91507f536166654d6174683a206164646974696f6e206f766572666c6f7700000000006000830152602082019050919050565b60006125fa609f83612d4f565b91507f4f726465722861646472657373207472616465722c616464726573732072656c60008301527f617965722c616464726573732062617365546f6b656e2c61646472657373207160208301527f756f7465546f6b656e2c75696e743235362062617365546f6b656e416d6f756e60408301527f742c75696e743235362071756f7465546f6b656e416d6f756e742c75696e743260608301527f353620676173546f6b656e416d6f756e742c62797465733332206461746129006080830152609f82019050919050565b60006126d2602183612d3e565b91507f536166654d6174683a206d756c7469706c69636174696f6e206f766572666c6f60008301527f77000000000000000000000000000000000000000000000000000000000000006020830152604082019050919050565b6000612738601983612d4f565b91507f454950373132446f6d61696e28737472696e67206e616d6529000000000000006000830152601982019050919050565b6000612778601383612d3e565b91507f6d61746368656420636f756e74206572726f72000000000000000000000000006000830152602082019050919050565b6060820160008201516127c160008501826123ac565b5060208201516127d460208501826123ac565b5060408201516127e760408501826123ac565b50505050565b6101008201600082015161280460008501826123ac565b50602082015161281760208501826129ae565b50604082015161282a60408501826129ae565b50606082015161283d60608501826129ae565b5060808201516128506080850182612486565b5060a082015161286360a0850182612927565b50505050565b6101008201600082015161288060008501826123ac565b50602082015161289360208501826129ae565b5060408201516128a660408501826129ae565b5060608201516128b960608501826129ae565b5060808201516128cc6080850182612486565b5060a08201516128df60a0850182612927565b50505050565b6060820160008201516128fb6000850182612486565b50602082015161290e6020850182612486565b5060408201516129216040850182612486565b50505050565b60608201600082015161293d6000850182612486565b5060208201516129506020850182612486565b5060408201516129636040850182612486565b50505050565b610140820160008201516129806000850182612869565b5060208201516129946101008501826129ae565b5060408201516129a8610120850182612486565b50505050565b6129b781612dce565b82525050565b6129c681612dce565b82525050565b60006129d882856124a4565b6020820191506129e882846124a4565b6020820191508190509392505050565b6000612a048284612503565b915081905092915050565b6000612a1a8261256d565b9150612a2682856124a4565b602082019150612a3682846124a4565b6020820191508190509392505050565b6000612a51826125ed565b9150819050919050565b6000612a668261272b565b9150819050919050565b6000602082019050612a856000830184612477565b92915050565b6000602082019050612aa06000830184612495565b92915050565b6000604082019050612abb6000830185612495565b612ac86020830184612495565b9392505050565b6000602082019050612ae460008301846124bb565b92915050565b60006020820190508181036000830152612b048184612534565b905092915050565b60006020820190508181036000830152612b2681846124ca565b905092915050565b60006020820190508181036000830152612b47816125ad565b9050919050565b60006020820190508181036000830152612b67816126c5565b9050919050565b60006020820190508181036000830152612b878161276b565b9050919050565b60006101a082019050612ba460008301876127ed565b818103610100830152612bb781866123bb565b9050818103610120830152612bcc8185612419565b9050612bdc6101408301846127ab565b95945050505050565b6000606082019050612bfa60008301846128e5565b92915050565b600061014082019050612c166000830184612969565b92915050565b6000602082019050612c3160008301846129bd565b92915050565b6000604051905081810181811067ffffffffffffffff82111715612c5a57600080fd5b8060405250919050565b600067ffffffffffffffff821115612c7b57600080fd5b601f19601f8301169050602081019050919050565b600067ffffffffffffffff821115612ca757600080fd5b601f19601f8301169050602081019050919050565b6000602082019050919050565b6000602082019050919050565b600081519050919050565b600081519050919050565b600081519050919050565b600081519050919050565b6000602082019050919050565b6000602082019050919050565b600082825260208201905092915050565b600082825260208201905092915050565b600082825260208201905092915050565b600081905092915050565b6000612d6582612dae565b9050919050565b60008115159050919050565b60007fff0000000000000000000000000000000000000000000000000000000000000082169050919050565b6000819050919050565b600073ffffffffffffffffffffffffffffffffffffffff82169050919050565b6000819050919050565b600060ff82169050919050565b6000612df082612df7565b9050919050565b6000612e0282612dae565b9050919050565b82818337600083830152505050565b60005b83811015612e36578082015181840152602081019050612e1b565b83811115612e45576000848401525b50505050565b6000819050919050565b6000601f19601f8301169050919050565b612e6f81612d5a565b8114612e7a57600080fd5b50565b612e8681612d6c565b8114612e9157600080fd5b50565b612e9d81612d78565b8114612ea857600080fd5b50565b612eb481612da4565b8114612ebf57600080fd5b50565b612ecb81612dce565b8114612ed657600080fd5b50565b612ee281612dd8565b8114612eed57600080fd5b5056fea265627a7a72305820f905068926ab22410548786540b5ebe1cd15bfcb6386a2adab3ca421a2ea04966c6578706572696d656e74616cf50037",
  "source": "\npragma solidity >=0.4.21 <0.6.0;\npragma experimental ABIEncoderV2;\n\nimport \"./SafeMath.sol\";\nimport \"./HybridExchange.sol\";\n\ncontract TempMatch is LibOrder{\n    using SafeMath for uint256;\n\n    uint256 public constant DAY_SECONDS = 24 * 60 * 60;\n    uint256 public constant WEEK_SECONDS = DAY_SECONDS * 7;\n\n    uint256 public constant SUPPORTED_ORDER_VERSION = 2;\n\n    // Match info\n    struct MatchedInfo{\n        uint256 baseTokenFilledAmount;\n        uint256 baseTokenAmount;\n        uint256 quoteTokenAmount;\n        uint256 count;\n        bool is_sell;\n    }\n\n    // queue element\n    struct QueueElem {\n        HybridExchange.OrderParam order;\n        uint256 filled;\n        bytes32 next;\n    }\n\n    // queue\n    struct Queue{\n        mapping(bytes32 => QueueElem) elems;\n        bytes32 start;\n        bytes32 end;\n    }\n\n    //  sell/buy queue \n    mapping(bytes32 => Queue) public sellQueue;\n    mapping(bytes32 => Queue) public buyQueue;\n\n    // order flag\n    mapping(bytes32 => bool) public orderFlag;\n\n    // address of dex\n    HybridExchange public _dex;\n\n    // configurations\n    mapping(string => string) public configurations;\n\n    event MakeOrder(bytes32 bq_hash, bytes32 od_hash);\n    event CancelOrder(bytes32 bq_hash, bytes32 od_hash);\n\n    /* constructor\n     * dex: address of dex\n     * */\n    constructor (HybridExchange dex) public\n    {\n        _dex = dex;\n    }\n\n    function () external payable\n    {\n    }\n\n    /* take order\n     *\n     * return hash of order if doesn't match all quoteTokenAmount\n     * */\n    function takeOrder(HybridExchange.OrderParam memory takerOrderParam, HybridExchange.OrderAddressSet memory orderAddressSet)\n        public\n    {\n        // hash of base-quote token\n        (bytes32 bq_hash, bytes32 od_hash) = getBQODHash(takerOrderParam, orderAddressSet);\n\n        // mark order\n        require(!orderFlag[od_hash]);\n        orderFlag[od_hash] = true;\n\n        Queue storage queue  = sellQueue[bq_hash];\n        Queue storage mqueue =  buyQueue[bq_hash];\n        MatchedInfo memory mi;\n        mi.is_sell = isSell(takerOrderParam.data);\n\n        if(!mi.is_sell)\n        {\n            queue  =  buyQueue[bq_hash];\n            mqueue = sellQueue[bq_hash];\n        }\n\n        // match sell / buy\n        mi.baseTokenAmount = takerOrderParam.baseTokenAmount;\n        mi.quoteTokenAmount = takerOrderParam.quoteTokenAmount;\n        mi.count = get_match_count(mqueue, mi, takerOrderParam.baseTokenAmount);\n        if(mi.count > 0)\n            match_orders(mqueue, takerOrderParam, orderAddressSet, mi);\n\n        // full match, never '<'\n        if(takerOrderParam.baseTokenAmount <= mi.baseTokenFilledAmount)\n        {\n            delete orderFlag[od_hash];\n            return ;\n        }\n\n        // use baseTokenAmount for 1 quote token\n        QueueElem storage elem =  queue.elems[od_hash];\n        elem.order = takerOrderParam;\n        elem.filled = mi.baseTokenFilledAmount;\n\n        // insert maker order\n        insert_queue(queue, mi, od_hash);\n        emit MakeOrder(bq_hash, od_hash);\n    }\n\n    /* get base-quote-hash\n     * base: base token\n     * quote: quote token\n     * */\n    function getBQHash(HybridExchange.OrderAddressSet memory orderAddressSet) public pure returns(bytes32 bq_hash)\n    {\n        bq_hash = keccak256(abi.encodePacked(\n                                bytes32(uint256(orderAddressSet.baseToken)),\n                                bytes32(uint256(orderAddressSet.quoteToken))));\n    }\n\n    /* get oder hash\n     * */\n    function getBQODHash(HybridExchange.OrderParam memory orderParam,\n                       HybridExchange.OrderAddressSet memory orderAddressSet)\n        public\n        view\n        returns(bytes32 bq_hash, bytes32 od_hash)\n    {\n        Order memory order;\n        order.trader = orderParam.trader;\n        order.baseTokenAmount = orderParam.baseTokenAmount;\n        order.quoteTokenAmount = orderParam.quoteTokenAmount;\n        order.gasTokenAmount = orderParam.gasTokenAmount;\n        order.data = orderParam.data;\n        order.baseToken = orderAddressSet.baseToken;\n        order.quoteToken = orderAddressSet.quoteToken;\n        order.relayer = orderAddressSet.relayer;\n\n        // hash of base-quote\n        bq_hash = keccak256(abi.encodePacked(\n                                bytes32(uint256(orderAddressSet.baseToken)),\n                                bytes32(uint256(orderAddressSet.quoteToken))));\n        // hash of order\n        od_hash = getOrderHash(order);\n    }\n\n    /* get order info\n     * bq_hash: base-quote hash\n     * od_hash: order hash\n     * is_sell: true for sell, false for buy\n     * */\n    function getOrderInfo(bytes32 bq_hash, bytes32 od_hash, bool is_sell)\n        public\n        view\n        returns (QueueElem memory)\n    {\n        if(is_sell)\n            return sellQueue[bq_hash].elems[od_hash];\n        else\n            return  buyQueue[bq_hash].elems[od_hash];\n    }\n\n    /* cancel order\n     * */\n    function cancelOrder(HybridExchange.OrderParam memory takerOrderParam,\n                         HybridExchange.OrderAddressSet memory orderAddressSet)\n        public\n    {\n        (bytes32 bq_hash, bytes32 od_hash) = getBQODHash(takerOrderParam, orderAddressSet);\n        bool is_sell = isSell(takerOrderParam.data);\n\n        // exists\n        require(orderFlag[od_hash]);\n\n        // get queue\n        Queue storage queue  = sellQueue[bq_hash];\n        if(!is_sell)\n            queue  =  buyQueue[bq_hash];\n\n        // delete order\n        remove_queue(queue, od_hash);\n\n        emit CancelOrder(bq_hash, od_hash);\n    }\n\n    /* get data */\n    function getConfigData(bool is_sell) public view returns(bytes32)\n    {\n        uint256 data;\n        // version\n        data = data | (SUPPORTED_ORDER_VERSION << (31*8));\n\n        if(is_sell)\n        {\n            // side, maker-rate, taker-rate\n            data = data | (1 << (30*8));\n            data = data | (0x258 << (22 * 8));\n            data = data | (0x258 << (20 * 8));\n        }\n\n        //expired\n        data = data | ((block.timestamp + WEEK_SECONDS) << (24*8));\n\n\n        return bytes32(data);\n    }\n\n    /* get signature\n     * signMethod: signature method\n     * */\n    function getConfigSignature(bytes1 v,  bytes32 r, bytes32 s, uint8 signMethod)\n        public\n        pure\n        returns(HybridExchange.OrderSignature memory sig)\n    {\n\n        sig.config = sig.config | bytes32(uint256(uint8(v)) << (31*8));\n        sig.config = sig.config | bytes32(uint256(signMethod) << (30*8));\n        sig.r = r;\n        sig.s = s;\n    }\n\n    // set configuration\n    function setConfiguration(string memory key, string memory value) public\n    {\n        configurations[key] = value;\n    }\n\n    // delete configuration\n    function delConfiguration(string memory key) public\n    {\n        delete configurations[key];\n    }\n\n    // match sell/buy\n    function match_orders(Queue storage queue,\n                          HybridExchange.OrderParam memory taker,\n                          HybridExchange.OrderAddressSet memory orderAddressSet,\n                          MatchedInfo memory mi)\n        internal\n    {\n        uint256 total = taker.baseTokenAmount;\n        HybridExchange.OrderParam[] memory makerOrderParams = new HybridExchange.OrderParam[](mi.count);\n        uint256[] memory baseTokenFilledAmounts = new uint256[](mi.count);\n\n        uint256 i = 0;\n        uint256 tmp;\n        QueueElem storage elem = queue.elems[queue.start];\n        while(queue.start != 0 && i < mi.count)\n        {\n            elem = queue.elems[queue.start];\n            tmp = elem.order.baseTokenAmount.sub(elem.filled);\n            if(total >= tmp)\n            {\n                mi.baseTokenFilledAmount = mi.baseTokenFilledAmount.add(tmp);\n                total = total.sub(tmp);\n                makerOrderParams[i] = elem.order;\n                baseTokenFilledAmounts[i] = tmp;\n                remove_queue(queue, queue.start);\n            }\n            else\n            {\n                mi.baseTokenFilledAmount = mi.baseTokenFilledAmount.add(total);\n                elem.filled = elem.filled.add(total);\n                makerOrderParams[i] = elem.order;\n                baseTokenFilledAmounts[i] = total;\n                i = i.add(1);\n                break;\n            }\n            i = i.add(1);\n        }\n        require(i==mi.count, \"matched count error\");\n\n        //require(makerOrderParams[0].baseTokenAmount==300, \"base value error\");\n        //require(makerOrderParams[0].quoteTokenAmount==27, \"quote value error\");\n        //require(baseTokenFilledAmounts[0]==50, \"filled value error\");\n        _dex.matchOrders(taker, makerOrderParams, baseTokenFilledAmounts, orderAddressSet);\n    }\n\n    // insert sell/buy queue\n    function insert_queue(Queue storage queue,\n                          MatchedInfo memory mi,\n                          bytes32 od_hash)\n        internal\n    {\n        // empty queue\n        if (queue.start == 0 &&\n            queue.end == 0)\n        {\n            queue.start = od_hash;\n            queue.end = od_hash;\n            return ;\n        }\n\n        // best price\n        QueueElem storage elem = queue.elems[queue.start];\n        if(isBetterPrice(mi, elem.order, false))\n        {\n            queue.elems[od_hash].next = queue.start;\n            queue.start = od_hash;\n            return ;\n        }\n\n        // worst price\n        elem = queue.elems[queue.end];\n        if(!isBetterPrice(mi, elem.order, false))\n        {\n            elem.next = od_hash;\n            queue.end = od_hash;\n            return ;\n        }\n\n        // middle price\n        bytes32 odh = queue.start;\n        bytes32 next = queue.elems[odh].next;\n        while(next != 0)\n        {\n            elem = queue.elems[next];\n            if(isBetterPrice(mi, elem.order, false))\n                break;\n\n            odh = next;\n            next = elem.next;\n        }\n        queue.elems[od_hash].next = next;\n        queue.elems[odh].next = od_hash;\n    }\n\n    // get count of matched\n    function get_match_count(Queue storage queue, MatchedInfo memory mi, uint256 total)\n        internal\n        view\n        returns(uint256 count)\n    {\n        bytes32 odh = queue.start;\n        bytes32 next = 0;\n        uint256 tmp = 0;\n        count = 0;\n        while(odh != 0 && total > 0)\n        {\n            QueueElem storage elem = queue.elems[odh];\n            next = elem.next;\n            if(isBetterPrice(mi, elem.order, true))\n            {\n                count = count.add(1);\n                tmp = elem.order.baseTokenAmount.sub(elem.filled);\n                if(total >= tmp)\n                {\n                    total = total.sub(tmp);\n                }\n                else\n                {\n                    total = 0;\n                    break;\n                }\n            }\n            else\n            {\n                break;\n            }\n            odh = next;\n        }\n    }\n\n    // remove sell/buy queue\n    function remove_queue(Queue storage queue, bytes32 od_hash)\n        internal\n    {\n        // empty queue\n        if (queue.start == 0 &&\n            queue.end == 0)\n        {\n            return ;\n        }\n\n        // best price\n        if(queue.start == od_hash)\n        {\n            queue.start = queue.elems[od_hash].next;\n            delete queue.elems[od_hash];\n            if(queue.start == 0)\n                queue.end = 0;\n            return ;\n        }\n\n        // middle/worst price\n        bytes32 odh = queue.start;\n        bytes32 next = queue.elems[odh].next;\n        while(next != 0)\n        {\n            if(next == od_hash)\n                break;\n\n            odh = next;\n            next = queue.elems[odh].next;\n        }\n        queue.elems[odh].next = queue.elems[od_hash].next;\n        delete queue.elems[od_hash];\n        delete orderFlag[od_hash];\n    }\n\n    function isSell(bytes32 data) internal pure returns (bool) {\n        return uint8(data[1]) == 1;\n    }\n\n    function isBetterPrice(MatchedInfo memory mi, HybridExchange.OrderParam storage makerOrderParam, bool is_match)\n        internal\n        view \n        returns (bool)\n    {\n        uint256 left = mi.quoteTokenAmount.mul(makerOrderParam.baseTokenAmount);\n        uint256 right = mi.baseTokenAmount.mul(makerOrderParam.quoteTokenAmount);\n        if (is_match)\n            return mi.is_sell ? left <= right : left >= right;\n        else\n            return mi.is_sell ? left < right : left > right;\n    }\n\n}\n",
  "sourcePath": "/Users/lifei/workspaces/georgeliuyu/match-hydro/contracts/TempMatch.sol",
  "compiler": {
    "name": "solc",
    "version": "0.5.8+commit.23d335f2.Emscripten.clang"
  },
  "schemaVersion": "3.0.16",
  "updatedAt": "2019-10-13T03:19:36.430Z",
  "devdoc": {
    "methods": {}
  },
  "userdoc": {
    "methods": {}
  }
}